:100000000C9434000C9451000C9451000C94510049
:100010000C9451000C9451000C9451000C9451001C
:100020000C9451000C9451000C9451000C943A0221
:100030000C9451000C9451000C9495000C94C00049
:100040000C94CE000C9451000C9451000C9451006F
:100050000C9451000C9451000C9451000C945100DC
:100060000C9451000C94510011241FBECFEFD8E026
:10007000DEBFCDBF11E0A0E0B1E0E2E1FFE002C0F1
:1000800005900D92AE31B107D9F727E0AEE1B1E0AE
:1000900001C01D92AE35B207E1F70E9460070C94D3
:1000A00087070C9400009093C5008093C40088E1FA
:1000B0008093C10086E08093C2000895E0ECF0E0F8
:1000C000908195FFFDCF8093C6000895CF93DF9375
:1000D000EC018881882331F021960E945E0089918D
:1000E0008111FBCFDF91CF91089580910001909114
:1000F00001010E9466008AE00E945E008DE00E947D
:100100005E000895239A089583E887BD88BD16BCD4
:1001100013BC14BC83E085BD87E080936E00109211
:100120001F0110921E0180E008951F920F920FB6DA
:100130000F9211242F938F939F9381E085BB809121
:100140001E0190911F01019690931F0180931E0143
:1001500080911E0190911F01843F914041F09F9139
:100160008F912F910F900FBE0F901F90189585B112
:1001700098E0892785B910921F0110921E01EFCFD8
:100180001F920F920FB60F9211248F9382E085BBBE
:100190008F910F900FBE0F901F9018951F920F9286
:1001A0000FB60F92112415BA0F900FBE0F901F902B
:1001B000189531E1FC013083319722E22083319799
:1001C000A3E3A083319760833197708331971082C6
:1001D000319760E8608331971082319762E06083E5
:1001E000319763E06083319764E06083319765E025
:1001F0006083319766E06083319767E06083319771
:1002000068E06083319769E06083319760E16083E3
:1002100031973083319732E13083319733E1308346
:10022000319734E13083319735E13083319736E1CE
:100230003083319737E13083319738E1308331971C
:1002400039E13083319730E23083319731E23083C6
:1002500031972083319723E2208331974083319770
:100260005083319726E22083319727E2208331970C
:1002700028E22083319729E22083319720E32083ED
:10028000319721E32083869708958CE790E090933F
:10029000890080938800E0E8F0E080818C7F808393
:1002A0008BE080938100EFE6F0E0808182608083C4
:1002B000A0915C07B0915D07CD91CDBFDD91DEBF10
:1002C000FF91EF91DF91CF91BF91AF919F918F916E
:1002D0007F916F915F914F913F912F911F910F915E
:1002E000FF90EF90DF90CF90BF90AF909F908F9056
:1002F0007F906F905F904F903F902F901F900F9046
:100300000FBE0F90089581E008950F920FB6F894F4
:100310000F921F9211242F923F924F925F926F92F1
:100320007F928F929F92AF92BF92CF92DF92EF9285
:10033000FF920F931F932F933F934F935F936F936E
:100340007F938F939F93AF93BF93CF93DF93EF935D
:10035000FF93A0915C07B0915D070DB60D920EB6AC
:100360000D920E94F306A0915C07B0915D07CD91BC
:10037000CDBFDD91DEBFFF91EF91DF91CF91BF91B6
:10038000AF919F918F917F916F915F914F913F912D
:100390002F911F910F91FF90EF90DF90CF90BF9022
:1003A000AF909F908F907F906F905F904F903F9015
:1003B0002F901F900F900FBE0F9008950F920FB6C1
:1003C000F8940F921F9211242F923F924F925F92B6
:1003D0006F927F928F929F92AF92BF92CF92DF9255
:1003E000EF92FF920F931F932F933F934F935F933F
:1003F0006F937F938F939F93AF93BF93CF93DF932D
:10040000EF93FF93A0915C07B0915D070DB60D923D
:100410000EB60D920E94D80481110E94F306A0919D
:100420005C07B0915D07CD91CDBFDD91DEBFFF913F
:10043000EF91DF91CF91BF91AF919F918F917F917C
:100440006F915F914F913F912F911F910F91FF906D
:10045000EF90DF90CF90BF90AF909F908F907F9064
:100460006F905F904F903F902F901F900F900FBE16
:100470000F9008950E94DE011895CF93DF93EC0151
:100480000E94D2048091200190912101892B01F1D9
:10049000209729F180912201909123019C012C0F3A
:1004A0003D1F2B3D45E03407E8F482179307E8F43D
:1004B000C0912001D0912101C80FD91F3093230191
:1004C000209322010E94F905CE01DF91CF9108957A
:1004D00084E291E09093210180932001D9CFD0E074
:1004E000C0E0F0CFD0E0C0E0EDCFD0E0C0E0EACF98
:1004F0000895FC010396928381832FEF3FEF3483AD
:100500002383968385839087878310820895FC01D7
:10051000118610860895CF93DF93EB0148815981AE
:10052000DC0113964F3F540729F4FC01A781B085E5
:100530000AC0DF011296ED91FC9113972081318161
:1005400042175307B0F71296ED91FC911397FB8376
:10055000EA83D583C483BD83AC831396DC93CE93A7
:10056000129799878887FC0120812F5F2083DF9174
:10057000CF910895CF93DF93FC01A085B185C2810F
:10058000D381848195819D838C83C481D58182812F
:1005900093819B838A8311968D919C9112978E17DC
:1005A0009F0749F0118610868C9181508C938C9115
:1005B000DF91CF9108958481958112969C938E93BB
:1005C0001197F0CFE0912407F091250780818823CF
:1005D00071F0E0912407F09125070580F681E02D68
:1005E00080819181909304078093030708958FEF92
:1005F0009FEF909304078093030708950F931F9331
:10060000CF93DF93EC0100910C0710910D078091BF
:100610005C0790915D0702960E94BA02C00FD11F3D
:10062000E0915C07F0915D07D383C283C017D107C7
:10063000C0F060915C0770915D07809124079091F4
:1006400025076E5F7F4F0E948B0280910307909178
:100650000407C817D90788F4D0930407C093030789
:100660000CC060915C0770915D07809122079091AA
:1006700023076E5F7F4F0E948B02DF91CF911F9106
:100680000F91089500E117E00F2EF8E3EF2EF7E049
:10069000FF2EF02D02C00E947A0780910F07882359
:1006A00021F10FB6F8940F92D8011596ED91FC91B7
:1006B000C681D781CE0102960E94BA0280910E07B0
:1006C000815080930E0780910F07815080930F0710
:1006D0000F900FBE8F89988D0E947802CE010E94E4
:1006E000780280910F078111DCCFF7018081823081
:1006F00090F20E948501CFCF4F925F926F927F92CE
:100700008F929F92AF92BF92CF92DF92EF92FF9221
:100710000F93CF93DF934C016B015A012901CA015A
:100720000E943D023C01892B09F4FCC086E290E066
:100730000E943D02EC01892B09F469C086E2FE01AA
:1007400011928A95E9F7788E6F8AF1E0AF1AB108B5
:10075000A60CB71CC114D104A9F0F6018081898FC1
:100760008081882371F0DE015A9687E0C80ED11C83
:1007700081818D938181882321F03196EC15FD05CF
:10078000B9F718A2043008F003E00E8B6E01E2E026
:10079000CE0ED11CC6010E948702CE010C960E948B
:1007A0008702D987C88784E090E0801B91099D87E4
:1007B0008C87DB8BCA8BA201B401C5010E94D900D2
:1007C00099838883E114F10419F0F701D183C08380
:1007D0000FB6F8940F9280910E078F5F80930E07EB
:1007E00080915C0790915D07892BB1F080910A0799
:1007F00081111BC0E0915C07F0915D0796898E899D
:10080000891798F0D0935D07C0935C070EC0C301B1
:100810000E9478028FEF89C0D0935D07C0935C0778
:1008200080910E07813009F44CC0809105078F5FDD
:10083000809305078E8990910B07981710F4809389
:100840000B0790E0FC01EE0FFF1FEE0FFF1FEE0FF6
:10085000FF1FE80FF91FE85CF84F0180F281E02DDF
:10086000FD83EC83848195819F838E83A481B581F0
:100870001396DC92CE921297D582C482EE898E2F87
:1008800090E0FC01EE0FFF1FEE0FFF1FEE0FFF1FAA
:10089000E80FF91FE85CF84FFB87EA8780818F5FDC
:1008A00080830F900FBE80910A078823E9F1E091C1
:1008B0005C07F0915D0796898E89981778F181E041
:1008C00034C088E397E00E94790281E497E00E94B7
:1008D00079028AE497E00E94790283E597E00E941A
:1008E00079028FE297E00E94790286E297E00E9407
:1008F000790289E197E00E94790280E197E00E9405
:1009000079028FE297E0909325078093240786E28F
:1009100097E0909323078093220787CF0E94850159
:1009200081E003C08FEF01C081E0DF91CF910F9193
:10093000FF90EF90DF90CF90BF90AF909F908F90FF
:100940007F906F905F904F900895EF92FF920F937A
:100950000F2EF1E0EF2EF7E0FF2EF02D00E030E05B
:1009600020E045E550E06FE071E082E493E00E9412
:100970007C03813031F0809102010F91FF90EF9064
:100980000895F8948FEF9FEF9093040780930307E7
:1009900081E080930A0710920D0710920C070E94C5
:1009A0004501E9CF809100078F5F8093000708958C
:1009B0000F931F93CF93DF938091000781110AC19A
:1009C000C0910C07D0910D078E010F5F1F4F109340
:1009D0000D0700930C070115110529F180910307FC
:1009E0009091040708171907B0F580E0E0915C07C3
:1009F000F0915D07E6892E2F30E0F901EE0FFF1F21
:100A0000EE0FFF1FEE0FFF1FE20FF31FE85CF84F22
:100A10009081923008F081E090910707992309F4C2
:100A2000E3C081E0E1C080912407909125072091E7
:100A300022073091230730932507209324079093B2
:100A4000230780932207809106078F5F8093060714
:100A50000E94E202C3CF80E091E05FC02FEF3FEF42
:100A60003093040720930307C1CF309304072093EA
:100A70000307BCCF2681378112963C932E931197A2
:100A80007FC0158A148A2C9121502C93268930918D
:100A90000B07321710F420930B0730E0D901AA0F8F
:100AA000BB1FAA0FBB1FAA0FBB1FA20FB31FA85CBF
:100AB000B84F11960D90BC91A02DB583A4831496C8
:100AC0002D913C9115973783268314962D913C9157
:100AD0001597E9015B834A8315965C934E931497AF
:100AE000A6892A2F30E0D901AA0FBB1FAA0FBB1F6E
:100AF000AA0FBB1FA20FB31FA85CB84FB387A28772
:100B00002C912F5F2C93A0915C07B0915D073689E3
:100B100056962C91231708F4892FE0912407F09121
:100B200025072081222309F499CFE0912407F09131
:100B300025070580F681E02D0680F781E02D2281D2
:100B400033810217130708F490CFA285B38524815F
:100B5000358146815781E9015D834C832681378148
:100B600044815581E9015B834A83AF014E5F5F4F4A
:100B700011962D913C9112972417350709F47ACFDD
:100B8000138612862C9121502C93A489B589109735
:100B900009F47CCF2685378560897189E9017D83D9
:100BA0006C832089318966857785E9017B836A8337
:100BB00011966D917C9112979F01245F3F4F6217B0
:100BC000730709F05ECF2089318912963C932E93EA
:100BD000119757CF8091080790910907019690933C
:100BE00009078093080780E0DF91CF911F910F9153
:100BF00008951F93CF93DF930FB6F8940F928091CF
:100C00000007815080930007809100078111D0C0B8
:100C100080910E07882309F4CCC0F0E0E0E069E1A0
:100C200077E021E0DB018C91882309F49EC0DB0191
:100C30001596ED91FC910680F781E02DA489B58988
:100C40008685978540895189EC015D834C83808935
:100C5000918946855785EC015B834A83CF010C96C9
:100C600011964D915C9112974817590709F46FC07E
:100C7000158A148A8C9181508C93A285B3858481C6
:100C8000958146815781EC015D834C8386819781F4
:100C900044815581EC015B834A83AF014E5F5F4F16
:100CA00011968D919C9112978417950709F456C05F
:100CB000138612868C9181508C93868990910B07B4
:100CC000981710F480930B0790E0DC01AA0FBB1F6C
:100CD000AA0FBB1FAA0FBB1FA80FB91FA85CB84F54
:100CE00011960D90BC91A02DB583A48314968D917F
:100CF0009C9115979783868314968D919C91159757
:100D0000EC015B834A8315965C934E931497A689F6
:100D10008A2F90E0DC01AA0FBB1FAA0FBB1FAA0FEE
:100D2000BB1FA80FB91FA85CB84FB387A2878C91CF
:100D30008F5F8C93A0915C07B0915D079689569662
:100D40008C91981708F46ECF209307076BCF80899A
:100D5000918912969C938E9311978ACF8681978161
:100D600012969C938E931197A3CFEF2B11F00E94B4
:100D7000E202C0910807D0910907209779F011E0AD
:100D800002C0219739F00E94D8048823D1F3109330
:100D90000707F7CF109209071092080780910707FD
:100DA000811102C080E005C00E94850181E001C080
:100DB00080E00F900FBEDF91CF911F910895CF93E8
:100DC000DF93EC01892B51F00E94D20460E0CE0148
:100DD0000E94FE020E94F905811102C00E94850155
:100DE000DF91CF91089580910007811158C0109232
:100DF000070720910B07822F90E0FC01EE0FFF1FE9
:100E0000EE0FFF1FEE0FFF1FE80FF91FE85CF84F12
:100E10003081311111C02150822F90E0FC01EE0F82
:100E2000FF1FEE0FFF1FEE0FFF1FE80FF91FE85C1B
:100E3000F84F3081332379F3AC01440F551F440F31
:100E4000551F440F551F480F591FDA01A85CB84FB2
:100E50001196ED91FC9112970280F381E02D12968C
:100E6000FC93EE931197455C584FE417F507D9F0C2
:100E7000FC01EE0FFF1FEE0FFF1FEE0FFF1FE80F2D
:100E8000F91FE85CF84F0180F281E02D868197819F
:100E900090935D0780935C0720930B07089581E092
:100EA00080930707089542815381FD015283418356
:100EB000DFCF0E94750088EE93E00E94DF06F9CF35
:100EC000EF92FF920F930E947B07F12CE12C02E03E
:100ED00030E020E045E550E064E171E089E597E02D
:100EE0000E947C030E94A50490E080E00F91FF9097
:100EF000EF900895089581E8809361000E94820038
:100F000087E690E00E9453000E9484000895F894C0
:020F1000FFCF11
:100F120003010348656C6C6F20576F726C64004963
:0E0F2200444C4500554152545F5441534B001E
:00000001FF
