:100000000C9434000C9451000C9451000C94510049
:100010000C9451000C9451000C9451000C9451001C
:100020000C9451000C9451000C9451000C94EA0172
:100030000C9451000C9451000C9451000C945100FC
:100040000C9451000C9451000C9451000C945100EC
:100050000C9451000C9451000C9451000C945100DC
:100060000C9451000C94510011241FBECFEFD8E026
:10007000DEBFCDBF11E0A0E0B1E0ECE3FDE002C0E7
:1000800005900D92AA33B107D9F727E0AAE3B1E0B2
:1000900001C01D92A337B207E1F70E9460060C94DD
:1000A0009C060C9400009093C5008093C40088E1E6
:1000B0008093C10086E08093C2000895E0ECF0E0F8
:1000C000908195FFFDCF8093C6000895CF93DF9375
:1000D000EC018881882331F021960E945E0089918D
:1000E0008111FBCFDF91CF91089580910001909114
:1000F00001010E9466008AE00E945E008DE00E947D
:100100005E000895249A089585B190E1892785B904
:10011000089531E1FC013083319722E22083319749
:10012000A3E3A08331976083319770833197108266
:10013000319760E8608331971082319762E0608385
:10014000319763E06083319764E06083319765E0C5
:100150006083319766E06083319767E06083319711
:1001600068E06083319769E06083319760E1608384
:1001700031973083319732E13083319733E13083E7
:10018000319734E13083319735E13083319736E16F
:100190003083319737E13083319738E130833197BD
:1001A00039E13083319730E23083319731E2308367
:1001B00031972083319723E2208331974083319711
:1001C0005083319726E22083319727E220833197AD
:1001D00028E22083319729E22083319720E320838E
:1001E000319721E320838697089589EF90E09093DB
:1001F000890080938800E0E8F0E080818C7F808334
:100200008BE080938100EFE6F0E080818260808364
:10021000A0917107B0917207CD91CDBFDD91DEBF86
:10022000FF91EF91DF91CF91BF91AF919F918F910E
:100230007F916F915F914F913F912F911F910F91FE
:10024000FF90EF90DF90CF90BF90AF909F908F90F6
:100250007F906F905F904F903F902F901F900F90E6
:100260000FBE0F90089581E008950F920FB6F89495
:100270000F921F9211242F923F924F925F926F9292
:100280007F928F929F92AF92BF92CF92DF92EF9226
:10029000FF920F931F932F933F934F935F936F930F
:1002A0007F938F939F93AF93BF93CF93DF93EF93FE
:1002B000FF93A0917107B09172070DB60D920EB623
:1002C0000D920E94E105A0917107B0917207CD9146
:1002D000CDBFDD91DEBFFF91EF91DF91CF91BF9157
:1002E000AF919F918F917F916F915F914F913F91CE
:1002F0002F911F910F91FF90EF90DF90CF90BF90C3
:10030000AF909F908F907F906F905F904F903F90B5
:100310002F901F900F900FBE0F9008950F920FB661
:10032000F8940F921F9211242F923F924F925F9256
:100330006F927F928F929F92AF92BF92CF92DF92F5
:10034000EF92FF920F931F932F933F934F935F93DF
:100350006F937F938F939F93AF93BF93CF93DF93CD
:10036000EF93FF93A0917107B09172070DB60D92B4
:100370000EB60D920E943C0481110E94E105A091ED
:100380007107B0917207CD91CDBFDD91DEBFFF91B6
:10039000EF91DF91CF91BF91AF919F918F917F911D
:1003A0006F915F914F913F912F911F910F91FF900E
:1003B000EF90DF90CF90BF90AF909F908F907F9005
:1003C0006F905F904F903F902F901F900F900FBEB7
:1003D0000F9008950E948E011895CF93DF93EC0142
:1003E0000E94360480913A0190913B01892BF1F0F3
:1003F00080913C0190913D019C012C0F3D1F2B3DB4
:1004000045E03407D0F482179307D0F4C0913A0145
:10041000D0913B01C80FD91F30933D0120933C017F
:100420000E94FC04CE01DF91CF9108958FE391E00B
:1004300090933B0180933A01DBCFD0E0C0E0F0CF56
:10044000D0E0C0E0EDCF0895FC0103969283818354
:100450002FEF3FEF348323839683858390878783B1
:1004600010820895FC01118610860895CF93DF93C2
:100470009C01FB01DC011196CD91DC91D383C283F9
:100480008C819D81958384838C819D81DC01139671
:100490007C936E9312977D836C8331872087F9015B
:1004A00080818F5F8083DF91CF910895CF93DF9319
:1004B000EB0148815981DC0113964F3F540729F421
:1004C000FC01A781B0850AC0DF011296ED91FC9175
:1004D00013972081318142175307B0F71296ED919F
:1004E000FC911397FB83EA83D583C483BD83AC83DC
:1004F0001396DC93CE93129799878887FC0120810D
:100500002F5F2083DF91CF910895CF93DF93FC017C
:10051000A085B185C281D381848195819D838C839F
:10052000C481D581828193819B838A8311968D9129
:100530009C9112978E179F0741F0118610868C911F
:1005400081508C93DF91CF9108958481958112968B
:100550009C938E931197F1CFE0913907F0913A0770
:100560008081882389F0E0913907F0913A0705806E
:10057000F681E02D0680F781E02D828193819093B2
:1005800003018093020108958FEF9FEF9093030181
:10059000809302010895CF93DF93EC01E0917107FE
:1005A000F0917207938382838091210790912207B3
:1005B000C817D907C0F060917107709172078091D8
:1005C000390790913A076E5F7F4F0E9456028091E3
:1005D000020190910301C817D90788F4D093030151
:1005E000C09302010CC060917107709172078091F5
:1005F0003707909138076E5F7F4F0E945602DF9158
:10060000CF9108954F925F926F927F928F929F92B7
:10061000AF92BF92CF92DF92EF92FF920F931F9310
:10062000CF93DF933C015B014A012901C114D1043E
:1006300009F46EC086E290E00E94ED01EC01892B86
:1006400009F46EC0D88ECF8A81E0881A9108C80C50
:10065000D91CF5018081898F8081882371F0DE01AA
:100660005A9687E0A80EB11C81818D9381818823E1
:1006700021F03196EA15FB05B9F718A2102F0430C6
:1006800008F013E01E8B5E01E2E0AE0EB11CC50166
:100690000E943202CE010C960E943202D987C8878E
:1006A00084E090E0811B91099D878C87DB8BCA8B4E
:1006B00019A21AA21BA21CA21DA2A201B301C6016B
:1006C0000E94890099838883E114F10419F0F701ED
:1006D000D183C0830FB6F8940F92809123078F5F68
:1006E000809323078091710790917207892BE9F01D
:1006F00080911F07811121C0E0917107F09172076D
:1007000086890817D0F0D0937207C093710715C07F
:10071000CA010E94ED016C01892B09F08BCF03C047
:10072000C6010E9423028FEF64C0D0937207C0936A
:10073000710780912307813051F180911B078F5FF2
:1007400080931B078E8990912007981710F480934F
:10075000200790E09C01220F331F220F331F220F2E
:10076000331F820F931FB501835B984F0E9436029F
:100770000F900FBE80911F078823D1F1E091710780
:10078000F09172078689801778F181E032C08DE49C
:1007900097E00E94240286E597E00E9424028FE5FC
:1007A00097E00E94240288E697E00E94240284E4F5
:1007B00097E00E9424028BE397E00E9424028EE2DD
:1007C00097E00E94240285E297E00E94240284E4DC
:1007D00097E090933A07809339078BE397E09093E3
:1007E000380780933707A9CF0E94350181E001C007
:1007F00081E0DF91CF911F910F91FF90EF90DF90FB
:10080000CF90BF90AF909F908F907F906F905F90B0
:100810004F900895AF92BF92CF92DF92EF92FF92E6
:100820000F93B12CA12CD12CC12CF12CE12C00E088
:1008300030E020E045E550E064E271E082EA95E0D6
:100840000E940203813041F00F91FF90EF90DF9002
:10085000CF90BF90AF900895F89480931F071092A7
:100860002207109221070E94F500EECF80911A070F
:100870008F5F80931A070895CF92DF92EF92FF92D5
:100880000F931F93CF93DF9380911A0781119EC01E
:1008900080912107909122070196909322078093DF
:1008A0002107E0902107F0902207E114F10409F4F8
:1008B00052C08091020190910301D12CE816F906F3
:1008C00008F467C0D12CCC24C394E0913907F0918F
:1008D0003A078081882309F456C0E0913907F091E6
:1008E0003A070580F681E02DC681D7818A819B81F8
:1008F000E816F90608F465C08E010E5F1F4FC801A7
:100900000E9485028C899D89892B21F0CE010C964D
:100910000E9485028E8990912007981710F4809389
:10092000200790E09C01220F331F220F331F220F5C
:10093000331F820F931FB801835B984F0E943602CA
:10094000E0917107F09172079E898689981708F4E3
:10095000BCCFDC2CBACF8091390790913A07209117
:1009600037073091380730933A072093390790932F
:1009700038078093370780911C078F5F80931C078F
:100980000E94AC0296CF8FEF9FEF9093030180936C
:100990000201E0917107F0917207E6898E2F90E0D5
:1009A000FC01EE0FFF1FEE0FFF1FEE0FFF1FE80F02
:1009B000F91FE35BF84F8081823070F0DD24D3941F
:1009C0000BC09093030180930201E3CF80911E0737
:1009D0008F5F80931E07D12C80911D07882311F013
:1009E000DD24D3948D2DDF91CF911F910F91FF9036
:1009F000EF90DF90CF900895DF92EF92FF920F93E8
:100A00001F93CF93DF930FB6F8940F9280911A073C
:100A1000815080931A0780911A07811168C08091D4
:100A200023070F2EFEE2EF2EF7E0FF2EF02DDD2440
:100A3000D394811119C080E05BC090E09C01220F2B
:100A4000331F220F331F220F331F820F931FB80152
:100A5000835B984F0E943602E0917107F091720714
:100A60009E8986899817E0F4F70180818823D9F060
:100A7000D7011596ED91FC91C681D781CE010C96D8
:100A80000E9485028E010E5F1F4FC8010E948502E1
:100A90008E8990912007981780F680932007CDCFFC
:100AA000D0921D07E1CF80911E078823B1F080917D
:100AB0001E07882391F0C1E009C080911E07815074
:100AC00080931E0780911E07882339F00E943C0402
:100AD000882399F3C0931D07F0CF80911D078130C3
:100AE00011F080E005C00E94350181E001C080E086
:100AF0000F900FBEDF91CF911F910F91FF90EF905C
:100B0000DF900895CF93DF93EC01892BB1F00E9421
:100B100036048091210790912207C80FD91F809138
:100B200071079091720702960E948502CE010E9481
:100B3000CB020E94FC04811102C00E943501DF91AA
:100B4000CF91089505E217E00F2EFDE4EF2EF7E0B8
:100B5000FF2EF02D06C0F7018081823078F50E94CB
:100B60009106809124078823B1F30E943604D801AE
:100B7000CC910E94FC04CC23A1F30FB6F8940F9201
:100B8000D8011596ED91FC91C681D781CE010296D0
:100B90000E948502809123078150809323078091D2
:100BA00024078150809324070F900FBE8F89988D62
:100BB0000E942302CE010E942302D3CF0E9435015E
:100BC000CECF80911A0781115FC010921D07E0916E
:100BD00020078E2F90E0FC01EE0FFF1FEE0FFF1F8E
:100BE000EE0FFF1FE80FF91FE35BF84F80818111C3
:100BF00017C080912007815080932007E091200743
:100C00008E2F90E0FC01EE0FFF1FEE0FFF1FEE0F87
:100C1000FF1FE80FF91FE35BF84F8081882349F33A
:100C20008091200790E09C01220F331F220F331F79
:100C3000220F331F280F391FD901A35BB84F11961C
:100C4000ED91FC9112970280F381E02D1296FC93B6
:100C5000EE931197205B384FE217F307C9F0FC01C0
:100C6000EE0FFF1FEE0FFF1FEE0FFF1FE80FF91F24
:100C7000E35BF84F0180F281E02D868197819093AC
:100C8000720780937107089581E080931D0708958E
:100C900022813381FD0132832183E1CF8AEF90E00D
:100CA0000E9482050E94840084EF91E00E948205E8
:100CB000F9CF0E94750088EE93E00E948205F9CF7B
:100CC000AF92BF92CF92DF92EF92FF920F930E946A
:100CD0009206B12CA12CD12CC12CF12CE12C01E0DD
:100CE00030E020E045E550E069E271E08EE496E016
:100CF0000E94020302E030E020E045E550E060E3BE
:100D000071E089E596E00E9402030E940A0490E0E7
:100D100080E00F91FF90EF90DF90CF90BF90AF9069
:100D20000895089581E8809361000E94820087E61B
:0C0D300090E00E9453000895F894FFCF5B
:100D3C000401FFFF4164646974696F6E616C206526
:100D4C00786572636973650048656C6C6F204D6FD4
:100D5C007274790049444C450050494E504234005D
:0A0D6C00554152545F5441534B00AF
:00000001FF
