:100000000C9434000C9451000C9451000C94510049
:100010000C9451000C9451000C9451000C9451001C
:100020000C9451000C9451000C9451000C943A0221
:100030000C9451000C9451000C9495000C94C00049
:100040000C94CE000C9451000C9451000C9451006F
:100050000C9451000C9451000C9451000C945100DC
:100060000C9451000C94510011241FBECFEFD8E026
:10007000DEBFCDBF11E0A0E0B1E0E4EBFDE002C0E7
:1000800005900D92A032B107D9F727E0A0E2B1E0C8
:1000900001C01D92AB35B207E1F70E94A5060C9492
:1000A000D8060C9400009093C5008093C40088E1AA
:1000B0008093C10086E08093C2000895E0ECF0E0F8
:1000C000908195FFFDCF8093C6000895CF93DF9375
:1000D000EC018881882331F021960E945E0089918D
:1000E0008111FBCFDF91CF91089580910001909114
:1000F00001010E9466008AE00E945E008DE00E947D
:100100005E000895239A089583E887BD88BD16BCD4
:1001100013BC14BC83E085BD87E080936E00109211
:1001200021011092200180E008951F920F920FB6D6
:100130000F9211242F938F939F9381E085BB809121
:10014000200190912101019690932101809320013B
:100150008091200190912101843F914041F09F9135
:100160008F912F910F900FBE0F901F90189585B112
:1001700098E0892785B91092210110922001EFCFD4
:100180001F920F920FB60F9211248F9382E085BBBE
:100190008F910F900FBE0F901F9018951F920F9286
:1001A0000FB60F92112415BA0F900FBE0F901F902B
:1001B000189531E1FC013083319722E22083319799
:1001C000A3E3A083319760833197708331971082C6
:1001D000319760E8608331971082319762E06083E5
:1001E000319763E06083319764E06083319765E025
:1001F0006083319766E06083319767E06083319771
:1002000068E06083319769E06083319760E16083E3
:1002100031973083319732E13083319733E1308346
:10022000319734E13083319735E13083319736E1CE
:100230003083319737E13083319738E1308331971C
:1002400039E13083319730E23083319731E23083C6
:1002500031972083319723E2208331974083319770
:100260005083319726E22083319727E2208331970C
:1002700028E22083319729E22083319720E32083ED
:10028000319721E320838697089589EF90E090933A
:10029000890080938800E0E8F0E080818C7F808393
:1002A0008BE080938100EFE6F0E0808182608083C4
:1002B000A0915907B0915A07CD91CDBFDD91DEBF16
:1002C000FF91EF91DF91CF91BF91AF919F918F916E
:1002D0007F916F915F914F913F912F911F910F915E
:1002E000FF90EF90DF90CF90BF90AF909F908F9056
:1002F0007F906F905F904F903F902F901F900F9046
:100300000FBE0F90089581E008950F920FB6F894F4
:100310000F921F9211242F923F924F925F926F92F1
:100320007F928F929F92AF92BF92CF92DF92EF9285
:10033000FF920F931F932F933F934F935F936F936E
:100340007F938F939F93AF93BF93CF93DF93EF935D
:10035000FF93A0915907B0915A070DB60D920EB6B2
:100360000D920E943106A0915907B0915A07CD9184
:10037000CDBFDD91DEBFFF91EF91DF91CF91BF91B6
:10038000AF919F918F917F916F915F914F913F912D
:100390002F911F910F91FF90EF90DF90CF90BF9022
:1003A000AF909F908F907F906F905F904F903F9015
:1003B0002F901F900F900FBE0F9008950F920FB6C1
:1003C000F8940F921F9211242F923F924F925F92B6
:1003D0006F927F928F929F92AF92BF92CF92DF9255
:1003E000EF92FF920F931F932F933F934F935F933F
:1003F0006F937F938F939F93AF93BF93CF93DF932D
:10040000EF93FF93A0915907B0915A070DB60D9243
:100410000EB60D920E948C0481110E943106A091AB
:100420005907B0915A07CD91CDBFDD91DEBFFF9145
:10043000EF91DF91CF91BF91AF919F918F917F917C
:100440006F915F914F913F912F911F910F91FF906D
:10045000EF90DF90CF90BF90AF909F908F907F9064
:100460006F905F904F903F902F901F900F900FBE16
:100470000F9008950E94DE011895CF93DF93EC0151
:100480000E9486048091220190912301892BF1F032
:1004900080912401909125019C012C0F3D1F2B3D43
:1004A00045E03407D0F482179307D0F4C0912201BD
:1004B000D0912301C80FD91F309325012093240127
:1004C0000E944C05CE01DF91CF91089587E291E023
:1004D0009093230180932201DBCFD0E0C0E0F0CFE6
:1004E000D0E0C0E0EDCF0895FC01039692838183B4
:1004F0002FEF3FEF34832383968385839087878311
:1005000010820895FC01118610860895CF93DF9321
:100510009C01FB01DC011196CD91DC91D383C28358
:100520008C819D81958384838C819D81DC011396D0
:100530007C936E9312977D836C8331872087F901BA
:1005400080818F5F8083DF91CF910895CF93DF9378
:10055000EB0148815981DC0113964F3F540729F480
:10056000FC01A781B0850AC0DF011296ED91FC91D4
:1005700013972081318142175307B0F71296ED91FE
:10058000FC911397FB83EA83D583C483BD83AC833B
:100590001396DC93CE93129799878887FC0120816C
:1005A0002F5F2083DF91CF910895CF93DF93FC01DC
:1005B000A085B185C281D381848195819D838C83FF
:1005C000C481D581828193819B838A8311968D9189
:1005D0009C9112978E179F0741F0118610868C917F
:1005E00081508C93DF91CF910895848195811296EB
:1005F0009C938E931197F1CFE0912107F091220700
:100600008081882389F0E0912107F09122070580FD
:10061000F681E02D0680F781E02D82819381909311
:1006200003018093020108958FEF9FEF90930301E0
:10063000809302010895CF93DF93EC01E091590775
:10064000F0915A07938382838091090790910A075A
:10065000C817D907C0F06091590770915A07809167
:100660002107909122076E5F7F4F0E94A602809122
:10067000020190910301C817D90788F4D0930301B0
:10068000C09302010CC06091590770915A07809184
:100690001F07909120076E5F7F4F0E94A602DF9197
:1006A000CF9108954F925F926F927F928F929F9217
:1006B000AF92BF92CF92DF92EF92FF920F931F9370
:1006C000CF93DF933C015B014A012901C114D1049E
:1006D00009F46EC086E290E00E943D02EC01892B95
:1006E00009F46EC0D88ECF8A81E0881A9108C80CB0
:1006F000D91CF5018081898F8081882371F0DE010A
:100700005A9687E0A80EB11C81818D938181882340
:1007100021F03196EA15FB05B9F718A2102F043025
:1007200008F013E01E8B5E01E2E0AE0EB11CC501C5
:100730000E948202CE010C960E948202D987C8874D
:1007400084E090E0811B91099D878C87DB8BCA8BAD
:1007500019A21AA21BA21CA21DA2A201B301C601CA
:100760000E94D90099838883E114F10419F0F701FC
:10077000D183C0830FB6F8940F9280910B078F5FDF
:1007800080930B078091590790915A07892BE9F0C4
:1007900080910707811121C0E0915907F0915A0714
:1007A00086890817D0F0D0935A07C093590715C00F
:1007B000CA010E943D026C01892B09F08BCF03C056
:1007C000C6010E9473028FEF64C0D0935A07C09392
:1007D000590780910B07813051F1809103078F5F9A
:1007E000809303078E8990910807981710F48093DF
:1007F000080790E09C01220F331F220F331F220FA6
:10080000331F820F931FB5018B5C984F0E948602A5
:100810000F900FBE809107078823D1F1E09159070F
:10082000F0915A078689801778F181E032C085E31C
:1008300097E00E9474028EE397E00E94740287E4BE
:1008400097E00E94740280E597E00E9474028CE2B7
:1008500097E00E94740283E297E00E94740286E1AE
:1008600097E00E9474028DE097E00E9474028CE28F
:1008700097E0909322078093210783E297E090937B
:10088000200780931F07A9CF0E94850181E001C046
:1008900081E0DF91CF911F910F91FF90EF90DF905A
:1008A000CF90BF90AF909F908F907F906F905F9010
:1008B0004F900895AF92BF92CF92DF92EF92FF9246
:1008C0000F93B12CA12CD12CC12CF12CE12C00E0E8
:1008D00030E020E045E550E060E171E082EF95E036
:1008E0000E945203813041F00F91FF90EF90DF9012
:1008F000CF90BF90AF900895F8948093070710921F
:100900000A07109209070E944501EECF8091020765
:100910008F5F809302070895CF92DF92EF92FF924C
:100920000F931F93CF93DF938091020781119EC095
:100930008091090790910A07019690930A07809386
:100940000907E0900907F0900A07E114F10409F49F
:1009500052C08091020190910301D12CE816F90652
:1009600008F467C0D12CCC24C394E0912107F09106
:1009700022078081882309F456C0E0912107F09175
:1009800022070580F681E02DC681D7818A819B816F
:10099000E816F90608F465C08E010E5F1F4FC80106
:1009A0000E94D5028C899D89892B21F0CE010C965D
:1009B0000E94D5028E8990910807981710F48093B1
:1009C000080790E09C01220F331F220F331F220FD4
:1009D000331F820F931FB8018B5C984F0E948602D1
:1009E000E0915907F0915A079E898689981708F473
:1009F000BCCFDC2CBACF80912107909122072091A7
:100A00001F073091200730932207209321079093EE
:100A1000200780931F07809104078F5F809304074E
:100A20000E94FC0296CF8FEF9FEF9093030180937B
:100A30000201E0915907F0915A07E6898E2F90E064
:100A4000FC01EE0FFF1FEE0FFF1FEE0FFF1FE80F61
:100A5000F91FEB5CF84F8081823070F0DD24D39475
:100A60000BC09093030180930201E3CF80910607AE
:100A70008F5F80930607D12C80910507882311F0A2
:100A8000DD24D3948D2DDF91CF911F910F91FF9095
:100A9000EF90DF90CF900895DF92EF92FF920F9347
:100AA0001F93CF93DF930FB6F8940F9280910207B4
:100AB00081508093020780910207811168C0809164
:100AC0000B070F2EF6E1EF2EF7E0FF2EF02DDD24C1
:100AD000D394811119C080E05BC090E09C01220F8B
:100AE000331F220F331F220F331F820F931FB801B2
:100AF0008B5C984F0E948602E0915907F0915A074B
:100B00009E8986899817E0F4F70180818823D9F0BF
:100B1000D7011596ED91FC91C681D781CE010C9637
:100B20000E94D5028E010E5F1F4FC8010E94D502A0
:100B30008E8990910807981780F680930807CDCF8B
:100B4000D0920507E1CF809106078823B1F080910C
:100B50000607882391F0C1E009C080910607815003
:100B60008093060780910607882339F00E948C0441
:100B7000882399F3C0930507F0CF80910507813052
:100B800011F080E005C00E94850181E001C080E095
:100B90000F900FBEDF91CF911F910F91FF90EF90BB
:100BA000DF900895CF93DF93EC01892BB1F00E9481
:100BB00086048091090790910A07C80FD91F809178
:100BC000590790915A0702960E94D502CE010E94C1
:100BD0001B030E944C05811102C00E948501DF9118
:100BE000CF9108950DE017E00F2EF5E3EF2EF7E01B
:100BF000FF2EF02D06C0F7018081823078F50E942B
:100C0000CB0680910C078823B1F30E948604D8019B
:100C1000CC910E944C05CC23A1F30FB6F8940F920F
:100C2000D8011596ED91FC91C681D781CE0102962F
:100C30000E94D50280910B07815080930B07809111
:100C40000C07815080930C070F900FBE8F89988DF1
:100C50000E947302CE010E947302D3CF0E948501CD
:100C6000CECF8091020781115FC010920507E091FD
:100C700008078E2F90E0FC01EE0FFF1FEE0FFF1F05
:100C8000EE0FFF1FE80FF91FEB5CF84F8081811119
:100C900017C080910807815080930807E0910807EA
:100CA0008E2F90E0FC01EE0FFF1FEE0FFF1FEE0FE7
:100CB000FF1FE80FF91FEB5CF84F8081882349F391
:100CC0008091080790E09C01220F331F220F331FF1
:100CD000220F331F280F391FD901AB5CB84F119673
:100CE000ED91FC9112970280F381E02D1296FC9316
:100CF000EE931197285C384FE217F307C9F0FC0117
:100D0000EE0FFF1FEE0FFF1FEE0FFF1FE80FF91F83
:100D1000EB5CF84F0180F281E02D86819781909302
:100D20005A0780935907089581E080930507089535
:100D300022813381FD0132832183E1CF0E9475003E
:100D400088EE93E00E94D205F9CFAF92BF92CF9286
:100D5000DF92EF92FF920F930E94CC06B12CA12C50
:100D6000D12CC12CF12CE12C02E030E020E045E553
:100D700050E065E171E08EE996E00E9452030E9426
:100D80005A0490E080E00F91FF90EF90DF90CF90B9
:100D9000BF90AF900895089581E8809361000E940C
:100DA000820087E690E00E9453000E94840008952C
:040DB000F894FFCFE5
:100DB4000401FFFF48656C6C6F20576F726C640010
:100DC40049444C4500554152545F5441534B000033
:00000001FF
