:100000000C9434000C9451000C9451000C94510049
:100010000C9451000C9451000C9451000C9451001C
:100020000C9451000C9451000C9451000C942E022D
:100030000C9451000C9451000C9489000C94B40061
:100040000C94C2000C9451000C9451000C9451007B
:100050000C9451000C9451000C9451000C945100DC
:100060000C9451000C94510011241FBECFEFD8E026
:10007000DEBFCDBF11E0A0E0B1E0E4ECFDE002C0E6
:1000800005900D92A632B107D9F727E0A6E2B1E0BC
:1000900001C01D92A136B207E1F70E94A4060C949C
:1000A000E0060C9400009093C5008093C40088E1A2
:1000B0008093C10086E08093C2000895E0ECF0E0F8
:1000C000908195FFFDCF8093C6000895CF93DF9375
:1000D000EC018881882331F021960E945E0089918D
:1000E0008111FBCFDF91CF91089580910001909114
:1000F00001010E9466008AE00E945E008DE00E947D
:100100005E000895249A089585B190E1892785B904
:1001100008951F920F920FB60F9211242F938F9371
:100120009F9381E085BB80912601909127010196E4
:1001300090932701809326018091260190912701B9
:10014000883E934041F09F918F912F910F900FBE69
:100150000F901F90189585B198E0892785B9109266
:10016000270110922601EFCF1F920F920FB60F9228
:1001700011248F9382E085BB8F910F900FBE0F905B
:100180001F9018951F920F920FB60F92112415BA57
:100190000F900FBE0F901F90189531E1FC01308336
:1001A000319722E220833197A3E3A08331976083C4
:1001B0003197708331971082319760E8608331976F
:1001C0001082319762E06083319763E060833197FA
:1001D00064E06083319765E06083319766E0608317
:1001E000319767E06083319768E06083319769E019
:1001F0006083319760E1608331973083319732E1DA
:100200003083319733E13083319734E13083319754
:1002100035E13083319736E13083319737E13083F0
:10022000319738E13083319739E13083319730E2CB
:100230003083319731E2308331972083319723E245
:1002400020833197408331975083319726E2208372
:10025000319727E22083319728E22083319729E2E2
:100260002083319720E32083319721E320838697F1
:10027000089589EF90E09093890080938800E0E8EA
:10028000F0E080818C7F80838BE080938100EFE6BB
:10029000F0E0808182608083A0915F07B091600769
:1002A000CD91CDBFDD91DEBFFF91EF91DF91CF9179
:1002B000BF91AF919F918F917F916F915F914F917E
:1002C0003F912F911F910F91FF90EF90DF90CF9072
:1002D000BF90AF909F908F907F906F905F904F9066
:1002E0003F902F901F900F900FBE0F90089581E0C8
:1002F00008950F920FB6F8940F921F9211242F9227
:100300003F924F925F926F927F928F929F92AF92A5
:10031000BF92CF92DF92EF92FF920F931F932F9392
:100320003F934F935F936F937F938F939F93AF937D
:10033000BF93CF93DF93EF93FF93A0915F07B091AB
:1003400060070DB60D920EB60D920E942506A09183
:100350005F07B0916007CD91CDBFDD91DEBFFF910A
:10036000EF91DF91CF91BF91AF919F918F917F914D
:100370006F915F914F913F912F911F910F91FF903E
:10038000EF90DF90CF90BF90AF909F908F907F9035
:100390006F905F904F903F902F901F900F900FBEE7
:1003A0000F9008950F920FB6F8940F921F92112498
:1003B0002F923F924F925F926F927F928F929F9275
:1003C000AF92BF92CF92DF92EF92FF920F931F9363
:1003D0002F933F934F935F936F937F938F939F934D
:1003E000AF93BF93CF93DF93EF93FF93A0915F07FA
:1003F000B09160070DB60D920EB60D920E9480046A
:1004000081110E942506A0915F07B0916007CD91F0
:10041000CDBFDD91DEBFFF91EF91DF91CF91BF9115
:10042000AF919F918F917F916F915F914F913F918C
:100430002F911F910F91FF90EF90DF90CF90BF9081
:10044000AF909F908F907F906F905F904F903F9074
:100450002F901F900F900FBE0F9008950E94D20111
:100460001895CF93DF93EC010E947A0480912801C4
:1004700090912901892BF1F080912A0190912B0113
:100480009C012C0F3D1F2B3D45E03407D0F4821713
:100490009307D0F4C0912801D0912901C80FD91F2A
:1004A00030932B0120932A010E944005CE01DF9159
:1004B000CF9108958DE291E09093290180932801D6
:1004C000DBCFD0E0C0E0F0CFD0E0C0E0EDCF0895CA
:1004D000FC010396928381832FEF3FEF34832383C4
:1004E000968385839087878310820895FC01118607
:1004F00010860895CF93DF939C01FB01DC011196D8
:10050000CD91DC91D383C2838C819D81958384833B
:100510008C819D81DC0113967C936E9312977D8371
:100520006C8331872087F90180818F5F8083DF9121
:10053000CF910895CF93DF93EB0148815981DC017E
:1005400013964F3F540729F4FC01A781B0850AC0D8
:10055000DF011296ED91FC911397208131814217B2
:100560005307B0F71296ED91FC911397FB83EA8342
:10057000D583C483BD83AC831396DC93CE9312974B
:1005800099878887FC0120812F5F2083DF91CF919D
:100590000895CF93DF93FC01A085B185C281D381FB
:1005A000848195819D838C83C481D581828193814F
:1005B0009B838A8311968D919C9112978E179F072A
:1005C00041F0118610868C9181508C93DF91CF91F0
:1005D00008958481958112969C938E931197F1CF03
:1005E000E0912707F09128078081882389F0E09126
:1005F0002707F09128070580F681E02D0680F78116
:10060000E02D8281938190930301809302010895EC
:100610008FEF9FEF90930301809302010895CF9392
:10062000DF93EC01E0915F07F09160079383828391
:1006300080910F0790911007C817D907C0F06091FB
:100640005F077091600780912707909128076E5F80
:100650007F4F0E949A028091020190910301C81776
:10066000D90788F4D0930301C09302010CC06091B4
:100670005F077091600780912507909126076E5F54
:100680007F4F0E949A02DF91CF9108954F925F921F
:100690006F927F928F929F92AF92BF92CF92DF9292
:1006A000EF92FF920F931F93CF93DF933C015B0177
:1006B0004A012901C114D10409F46EC086E290E018
:1006C0000E943102EC01892B09F46EC0D88ECF8ACA
:1006D00081E0881A9108C80CD91CF5018081898FA6
:1006E0008081882371F0DE015A9687E0A80EB11C44
:1006F00081818D938181882321F03196EA15FB0554
:10070000B9F718A2102F043008F013E01E8B5E0119
:10071000E2E0AE0EB11CC5010E947602CE010C963D
:100720000E947602D987C88784E090E0811B9109F6
:100730009D878C87DB8BCA8B19A21AA21BA21CA2D5
:100740001DA2A201B301C6010E94CD009983888336
:10075000E114F10419F0F701D183C0830FB6F894C6
:100760000F92809111078F5F8093110780915F072F
:1007700090916007892BE9F080910D07811121C0CC
:10078000E0915F07F091600786890817D0F0D09359
:100790006007C0935F0715C0CA010E9431026C0157
:1007A000892B09F08BCF03C0C6010E9467028FEF2F
:1007B00064C0D0936007C0935F07809111078130B8
:1007C00051F1809109078F5F809309078E8990917D
:1007D0000E07981710F480930E0790E09C01220FEB
:1007E000331F220F331F220F331F820F931FB501B8
:1007F000855C984F0E947A020F900FBE80910D0782
:100800008823D1F1E0915F07F09160078689801716
:1008100078F181E032C08BE397E00E94680284E4C3
:1008200097E00E9468028DE497E00E94680286E5E6
:1008300097E00E94680282E397E00E94680289E2E2
:1008400097E00E9468028CE197E00E94680283E1D1
:1008500097E00E94680282E397E0909328078093D4
:10086000270789E297E09093260780932507A9CF71
:100870000E94790181E001C081E0DF91CF911F9159
:100880000F91FF90EF90DF90CF90BF90AF909F902F
:100890008F907F906F905F904F900895AF92BF922E
:1008A000CF92DF92EF92FF920F93B12CA12CD12C1B
:1008B000C12CF12CE12C00E030E020E045E550E0D7
:1008C00060E171E086EE95E00E944603813041F0E0
:1008D0000F91FF90EF90DF90CF90BF90AF90089571
:1008E000F89480930D071092100710920F070E9442
:1008F0003901EECF809108078F5F80930807089534
:10090000CF92DF92EF92FF920F931F93CF93DF93DB
:100910008091080781119EC080910F079091100768
:1009200001969093100780930F07E0900F07F090C7
:100930001007E114F10409F452C080910201909172
:100940000301D12CE816F90608F467C0D12CCC2499
:10095000C394E0912707F09128078081882309F448
:1009600056C0E0912707F09128070580F681E02D19
:10097000C681D7818A819B81E816F90608F465C093
:100980008E010E5F1F4FC8010E94C9028C899D898C
:10099000892B21F0CE010C960E94C9028E8990917C
:1009A0000E07981710F480930E0790E09C01220F19
:1009B000331F220F331F220F331F820F931FB801E3
:1009C000855C984F0E947A02E0915F07F091600782
:1009D0009E898689981708F4BCCFDC2CBACF809109
:1009E00027079091280720912507309126073093FB
:1009F0002807209327079093260780932507809147
:100A00000A078F5F80930A070E94F00296CF8FEF4C
:100A10009FEF9093030180930201E0915F07F091B3
:100A20006007E6898E2F90E0FC01EE0FFF1FEE0FAE
:100A3000FF1FEE0FFF1FE80FF91FE55CF84F8081E5
:100A4000823070F0DD24D3940BC090930301809327
:100A50000201E3CF80910C078F5F80930C07D12CAC
:100A600080910B07882311F0DD24D3948D2DDF9125
:100A7000CF911F910F91FF90EF90DF90CF9008954D
:100A8000DF92EF92FF920F931F93CF93DF930FB6F6
:100A9000F8940F9280910807815080930807809105
:100AA0000807811168C0809111070F2EFCE1EF2E1D
:100AB000F7E0FF2EF02DDD24D394811119C080E0E2
:100AC0005BC090E09C01220F331F220F331F220FC7
:100AD000331F820F931FB801855C984F0E947A02E2
:100AE000E0915F07F09160079E8986899817E0F48E
:100AF000F70180818823D9F0D7011596ED91FC91FB
:100B0000C681D781CE010C960E94C9028E010E5F6C
:100B10001F4FC8010E94C9028E8990910E07981735
:100B200080F680930E07CDCFD0920B07E1CF809156
:100B30000C078823B1F080910C07882391F0C1E065
:100B400009C080910C07815080930C0780910C079D
:100B5000882339F00E948004882399F3C0930B07FF
:100B6000F0CF80910B07813011F080E005C00E942A
:100B7000790181E001C080E00F900FBEDF91CF913D
:100B80001F910F91FF90EF90DF900895CF93DF9327
:100B9000EC01892BB1F00E947A0480910F079091AB
:100BA0001007C80FD91F80915F07909160070296C8
:100BB0000E94C902CE010E940F030E9440058111CC
:100BC00002C00E947901DF91CF91089503E117E0FF
:100BD0000F2EFBE3EF2EF7E0FF2EF02D06C0F701FE
:100BE0008081823078F50E94D50680911207882393
:100BF000B1F30E947A04D801CC910E944005CC2325
:100C0000A1F30FB6F8940F92D8011596ED91FC91CF
:100C1000C681D781CE0102960E94C9028091110738
:100C200081508093110780911207815080931207A1
:100C30000F900FBE8F89988D0E946702CE010E948F
:100C40006702D3CF0E947901CECF8091080781112E
:100C50005FC010920B07E0910E078E2F90E0FC0111
:100C6000EE0FFF1FEE0FFF1FEE0FFF1FE80FF91F24
:100C7000E55CF84F8081811117C080910E0781508B
:100C800080930E07E0910E078E2F90E0FC01EE0F8F
:100C9000FF1FEE0FFF1FEE0FFF1FE80FF91FE55CB0
:100CA000F84F8081882349F380910E0790E09C01E2
:100CB000220F331F220F331F220F331F280F391F1C
:100CC000D901A55CB84F1196ED91FC911297028065
:100CD000F381E02D1296FC93EE931197225C384F2E
:100CE000E217F307C9F0FC01EE0FFF1FEE0FFF1F25
:100CF000EE0FFF1FE80FF91FE55CF84F0180F2814E
:100D0000E02D868197819093600780935F07089517
:100D100081E080930B07089522813381FD013283A6
:100D20002183E1CF8AEF90E00E94C6050E948400F3
:100D300084EF91E00E94C605F9CF0E94750088EE0D
:100D400093E00E94C605F9CFAF92BF92CF92DF9297
:100D5000EF92FF920F930E94D606B12CA12CD12CBA
:100D6000C12CF12CE12C01E030E020E045E550E021
:100D700065E171E082E996E00E94460302E030E01E
:100D800020E045E550E06CE171E08DE996E00E94DD
:100D900046030E944E0490E080E00F91FF90EF9098
:100DA000DF90CF90BF90AF900895089581E8809331
:100DB00061000E94820087E690E00E94530008953F
:040DC000F894FFCFD5
:100DC4000401FFFF48656C6C6F20576F726C640000
:100DD40049444C450050494E504234005541525408
:060DE4005F5441534B0077
:00000001FF
