:100000000C9434000C9451000C9451000C94510049
:100010000C9451000C9451000C9451000C9451001C
:100020000C9451000C9451000C9451000C942E022D
:100030000C9451000C9451000C9489000C94B40061
:100040000C94C2000C9451000C9451000C9451007B
:100050000C9451000C9451000C9451000C945100DC
:100060000C9451000C94510011241FBECFEFD8E026
:10007000DEBFCDBF11E0A0E0B1E0E2E2FFE002C0F0
:1000800005900D92A632B107D9F727E0A6E2B1E0BC
:1000900001C01D92A636B207E1F70E945F070C94DB
:1000A0008F070C9400009093C5008093C40088E1F2
:1000B0008093C10086E08093C2000895E0ECF0E0F8
:1000C000908195FFFDCF8093C6000895CF93DF9375
:1000D000EC018881882331F021960E945E0089918D
:1000E0008111FBCFDF91CF91089580910001909114
:1000F00001010E9466008AE00E945E008DE00E947D
:100100005E000895249A089585B190E1892785B904
:1001100008951F920F920FB60F9211242F938F9371
:100120009F9381E085BB80912601909127010196E4
:1001300090932701809326018091260190912701B9
:10014000843F914041F09F918F912F910F900FBE6E
:100150000F901F90189585B198E0892785B9109266
:10016000270110922601EFCF1F920F920FB60F9228
:1001700011248F9382E085BB8F910F900FBE0F905B
:100180001F9018951F920F920FB60F92112415BA57
:100190000F900FBE0F901F90189531E1FC01308336
:1001A000319722E220833197A3E3A08331976083C4
:1001B0003197708331971082319760E8608331976F
:1001C0001082319762E06083319763E060833197FA
:1001D00064E06083319765E06083319766E0608317
:1001E000319767E06083319768E06083319769E019
:1001F0006083319760E1608331973083319732E1DA
:100200003083319733E13083319734E13083319754
:1002100035E13083319736E13083319737E13083F0
:10022000319738E13083319739E13083319730E2CB
:100230003083319731E2308331972083319723E245
:1002400020833197408331975083319726E2208372
:10025000319727E22083319728E22083319729E2E2
:100260002083319720E32083319721E320838697F1
:1002700008958CE790E09093890080938800E0E8EF
:10028000F0E080818C7F80838BE080938100EFE6BB
:10029000F0E0808182608083A0916407B09165075F
:1002A000CD91CDBFDD91DEBFFF91EF91DF91CF9179
:1002B000BF91AF919F918F917F916F915F914F917E
:1002C0003F912F911F910F91FF90EF90DF90CF9072
:1002D000BF90AF909F908F907F906F905F904F9066
:1002E0003F902F901F900F900FBE0F90089581E0C8
:1002F00008950F920FB6F8940F921F9211242F9227
:100300003F924F925F926F927F928F929F92AF92A5
:10031000BF92CF92DF92EF92FF920F931F932F9392
:100320003F934F935F936F937F938F939F93AF937D
:10033000BF93CF93DF93EF93FF93A0916407B091A6
:1003400065070DB60D920EB60D920E94E706A091BC
:100350006407B0916507CD91CDBFDD91DEBFFF9100
:10036000EF91DF91CF91BF91AF919F918F917F914D
:100370006F915F914F913F912F911F910F91FF903E
:10038000EF90DF90CF90BF90AF909F908F907F9035
:100390006F905F904F903F902F901F900F900FBEE7
:1003A0000F9008950F920FB6F8940F921F92112498
:1003B0002F923F924F925F926F927F928F929F9275
:1003C000AF92BF92CF92DF92EF92FF920F931F9363
:1003D0002F933F934F935F936F937F938F939F934D
:1003E000AF93BF93CF93DF93EF93FF93A0916407F5
:1003F000B09165070DB60D920EB60D920E94CC0419
:1004000081110E94E706A0916407B0916507CD9124
:10041000CDBFDD91DEBFFF91EF91DF91CF91BF9115
:10042000AF919F918F917F916F915F914F913F918C
:100430002F911F910F91FF90EF90DF90CF90BF9081
:10044000AF909F908F907F906F905F904F903F9074
:100450002F901F900F900FBE0F9008950E94D20111
:100460001895CF93DF93EC010E94C6048091280178
:1004700090912901892B01F1209729F180912A017E
:1004800090912B019C012C0F3D1F2B3D45E0340723
:10049000E8F482179307E8F4C0912801D09129016C
:1004A000C80FD91F30932B0120932A010E94ED051C
:1004B000CE01DF91CF9108958CE291E090932901D4
:1004C00080932801D9CFD0E0C0E0F0CFD0E0C0E0E9
:1004D000EDCFD0E0C0E0EACF0895FC01039692830F
:1004E00081832FEF3FEF3483238396838583908727
:1004F000878310820895FC01118610860895CF939A
:10050000DF93EB0148815981DC0113964F3F54077B
:1005100029F4FC01A781B0850AC0DF011296ED9194
:10052000FC9113972081318142175307B0F712963F
:10053000ED91FC911397FB83EA83D583C483BD833C
:10054000AC831396DC93CE93129799878887FC012E
:1005500020812F5F2083DF91CF910895CF93DF9388
:10056000FC01A085B185C281D381848195819D8361
:100570008C83C481D581828193819B838A831196E8
:100580008D919C9112978E179F0749F011861086C6
:100590008C9181508C938C91DF91CF9108958481BF
:1005A000958112969C938E931197F0CFE0912C0732
:1005B000F0912D078081882371F0E0912C07F09154
:1005C0002D070580F681E02D8081918190930C07A5
:1005D00080930B0708958FEF9FEF90930C07809304
:1005E0000B0708950F931F93CF93DF93EC010091B6
:1005F0001407109115078091640790916507029682
:100600000E94AE02C00FD11FE0916407F091650710
:10061000D383C283C017D107C0F060916407709183
:10062000650780912C0790912D076E5F7F4F0E9488
:100630007F0280910B0790910C07C817D90788F4A7
:10064000D0930C07C0930B070CC0609164077091A6
:10065000650780912A0790912B076E5F7F4F0E945C
:100660007F02DF91CF911F910F91089508E117E06C
:100670000F2EF0E4EF2EF7E0FF2EF02D02C00E94C7
:10068000840780911707882321F10FB6F8940F9201
:10069000D8011596ED91FC91C681D781CE010296C5
:1006A0000E94AE02809116078150809316078091B8
:1006B00017078150809317070F900FBE8F89988D71
:1006C0000E946C02CE010E946C028091170781117A
:1006D000DCCFF7018081823090F20E947901CFCF88
:1006E0004F925F926F927F928F929F92AF92BF9242
:1006F000CF92DF92EF92FF920F93CF93DF934C0153
:100700006B015A012901CA010E9431023C01892B67
:1007100009F4FCC086E290E00E943102EC01892BD2
:1007200009F469C086E2FE0111928A95E9F7788E94
:100730006F8AF1E0AF1AB108A60CB71CC114D1043E
:10074000A9F0F6018081898F8081882371F0DE0114
:100750005A9687E0C80ED11C81818D9381818823B0
:1007600021F03196EC15FD05B9F718A2043008F018
:1007700003E00E8B6E01E2E0CE0ED11CC6010E949A
:100780007B02CE010C960E947B02D987C88784E049
:1007900090E0801B91099D878C87DB8BCA8BA2011F
:1007A000B401C5010E94CD0099838883E114F1044E
:1007B00019F0F701D183C0830FB6F8940F9280919E
:1007C00016078F5F809316078091640790916507E5
:1007D000892BB1F08091120781111BC0E091640751
:1007E000F091650796898E89891798F0D0936507EF
:1007F000C09364070EC0C3010E946C028FEF89C0D2
:10080000D0936507C093640780911607813009F47F
:100810004CC080910D078F5F80930D078E8990915A
:100820001307981710F48093130790E0FC01EE0F64
:10083000FF1FEE0FFF1FEE0FFF1FE80FF91FE05C19
:10084000F84F0180F281E02DFD83EC838481958156
:100850009F838E83A481B5811396DC92CE921297EA
:10086000D582C482EE898E2F90E0FC01EE0FFF1F2F
:10087000EE0FFF1FEE0FFF1FE80FF91FE05CF84FB0
:10088000FB87EA8780818F5F80830F900FBE809106
:1008900012078823E9F1E0916407F09165079689D2
:1008A0008E89981778F181E034C080E497E00E9447
:1008B0006D0289E497E00E946D0282E597E00E9454
:1008C0006D028BE597E00E946D0287E397E00E943E
:1008D0006D028EE297E00E946D0281E297E00E9435
:1008E0006D0288E197E00E946D0287E397E09093A4
:1008F0002D0780932C078EE297E090932B0780932F
:100900002A0787CF0E94790181E003C08FEF01C0E1
:1009100081E0DF91CF910F91FF90EF90DF90CF902A
:10092000BF90AF909F908F907F906F905F904F900F
:100930000895EF92FF920F930F2EF9E0EF2EF7E05C
:10094000FF2EF02D00E030E020E045E550E06FE0C4
:1009500071E086E393E00E947003813031F0809172
:1009600002010F91FF90EF900895F8948FEF9FEFA1
:1009700090930C0780930B0781E0809312071092ED
:100980001507109214070E943901E9CF80910807DA
:100990008F5F8093080708950F931F93CF93DF9382
:1009A0008091080781110AC1C0911407D0911507E1
:1009B0008E010F5F1F4F1093150700931407011549
:1009C000110529F180910B0790910C070817190761
:1009D000B0F580E0E0916407F0916507E6892E2F7D
:1009E00030E0F901EE0FFF1FEE0FFF1FEE0FFF1FAC
:1009F000E20FF31FE05CF84F9081923008F081E045
:100A000090910F07992309F4E3C081E0E1C0809140
:100A10002C0790912D0720912A0730912B073093B6
:100A20002D0720932C0790932B0780932A07809102
:100A30000E078F5F80930E070E94D602C3CF80E01F
:100A400091E05FC02FEF3FEF30930C0720930B072F
:100A5000C1CF30930C0720930B07BCCF2681378181
:100A600012963C932E9311977FC0158A148A2C916D
:100A700021502C93268930911307321710F42093BC
:100A8000130730E0D901AA0FBB1FAA0FBB1FAA0F83
:100A9000BB1FA20FB31FA05CB84F11960D90BC9165
:100AA000A02DB583A48314962D913C91159737837F
:100AB000268314962D913C911597E9015B834A8317
:100AC00015965C934E931497A6892A2F30E0D9018E
:100AD000AA0FBB1FAA0FBB1FAA0FBB1FA20FB31FDA
:100AE000A05CB84FB387A2872C912F5F2C93A09165
:100AF0006407B0916507368956962C91231708F440
:100B0000892FE0912C07F0912D072081222309F4F1
:100B100099CFE0912C07F0912D070580F681E02D0B
:100B20000680F781E02D228133810217130708F434
:100B300090CFA285B3852481358146815781E90113
:100B40005D834C832681378144815581E9015B8334
:100B50004A83AF014E5F5F4F11962D913C911297E2
:100B60002417350709F47ACF138612862C91215069
:100B70002C93A489B589109709F47CCF26853785F5
:100B800060897189E9017D836C832089318966855B
:100B90007785E9017B836A8311966D917C91129729
:100BA0009F01245F3F4F6217730709F05ECF2089D2
:100BB000318912963C932E93119757CF809110074D
:100BC000909111070196909311078093100780E090
:100BD000DF91CF911F910F9108951F93CF93DF93D2
:100BE0000FB6F8940F928091080781508093080700
:100BF000809108078111D0C080911607882309F4DD
:100C0000CCC0F0E0E0E061E277E021E0DB018C9134
:100C1000882309F49EC0DB011596ED91FC910680B6
:100C2000F781E02DA489B58986859785408951890A
:100C3000EC015D834C838089918946855785EC0161
:100C40005B834A83CF010C9611964D915C9112976C
:100C50004817590709F46FC0158A148A8C9181507E
:100C60008C93A285B3858481958146815781EC015F
:100C70005D834C838681978144815581EC015B8340
:100C80004A83AF014E5F5F4F11968D919C911297F1
:100C90008417950709F456C0138612868C918150EB
:100CA0008C93868990911307981710F480931307FB
:100CB00090E0DC01AA0FBB1FAA0FBB1FAA0FBB1F2E
:100CC000A80FB91FA05CB84F11960D90BC91A02D34
:100CD000B583A48314968D919C91159797838683F1
:100CE00014968D919C911597EC015B834A83159620
:100CF0005C934E931497A6898A2F90E0DC01AA0F8B
:100D0000BB1FAA0FBB1FAA0FBB1FA80FB91FA05C58
:100D1000B84FB387A2878C918F5F8C93A0916407A3
:100D2000B0916507968956968C91981708F46ECF06
:100D300020930F076BCF8089918912969C938E9395
:100D400011978ACF8681978112969C938E931197E3
:100D5000A3CFEF2B11F00E94D602C0911007D091C3
:100D60001107209779F011E002C0219739F00E9415
:100D7000CC048823D1F310930F07F7CF10921107FB
:100D80001092100780910F07811102C080E005C00A
:100D90000E94790181E001C080E00F900FBEDF91D9
:100DA000CF911F910895CF93DF93EC01892B51F0E0
:100DB0000E94C60460E0CE010E94F2020E94ED058E
:100DC000811102C00E947901DF91CF910895809135
:100DD0000807811158C010920F0720911307822F26
:100DE00090E0FC01EE0FFF1FEE0FFF1FEE0FFF1F45
:100DF000E80FF91FE05CF84F3081311111C021502C
:100E0000822F90E0FC01EE0FFF1FEE0FFF1FEE0F91
:100E1000FF1FE80FF91FE05CF84F3081332379F3AF
:100E2000AC01440F551F440F551F440F551F480F69
:100E3000591FDA01A05CB84F1196ED91FC91129701
:100E40000280F381E02D1296FC93EE9311974D5B97
:100E5000584FE417F507D9F0FC01EE0FFF1FEE0F16
:100E6000FF1FEE0FFF1FE80FF91FE05CF84F018036
:100E7000F281E02D868197819093650780936407C6
:100E800020931307089581E080930F07089542810E
:100E90005381FD0152834183DFCF84EF91E00E94B3
:100EA000D3060E94840088EE93E00E94D306F9CF17
:100EB0000E94750080ED97E00E94D306F9CFEF9273
:100EC000FF920F930E948507F12CE12C01E030E0A6
:100ED00020E045E550E064E171E08DE497E00E9498
:100EE000700302E030E020E045E550E06BE171E0A6
:100EF00088E597E00E9470030E94990490E080E0EA
:100F00000F91FF90EF900895089581E8809361001C
:100F10000E94820087E690E00E9453000895F894B2
:020F2000FFCF01
:100F220003010348656C6C6F20576F726C64004953
:100F3200444C450050494E50423400554152545F92
:060F42005441534B000076
:00000001FF
